:060000000A128A11CF2F45
:1009CC00413442344334443445344634F0008312C9
:1009DC0003130C1EED2C70089900080064008001B4
:1009EC00840A0406031900340406F52C8316031339
:1009FC008C1683128C1EFF2C831603138C128312FD
:100A0C0003131A080800F0007008831203178D00F6
:100A1C00831603178C130C14831203170C0808008D
:100A2C00F2007208831203178D0070088C00831675
:100A3C0003178C130C150B08F1007108F3008B01D4
:100A4C0055308D00AA308D008C1473088B000C115E
:100A5C00831203130D1A342D00002E2D0D120800D5
:100A6C00FF30F800F2007208F900412D3330831684
:100A7C00031399004B2D7108253A0319462D4B2D64
:100A8C007008803A03193C2D4B2D83160313181351
:100A9C009816181218158312031398171813181692
:100AAC009811831603178711831603138C160B17D3
:100ABC008B170800F301F401053073067404031955
:100ACC0008008312031385140230F2000430F10085
:100ADC00BA30F000F00B702DF10B702DF20B702D65
:100AEC0000008312031385100230F2000430F10071
:100AFC00BA30F000F00B802DF10B802DF20B802D15
:100B0C0000000130F3070318F40A0030F407622DDB
:100B1C007030831603138F0486018801831203132C
:100B2C008801860183160313850183120313850143
:100B3C000A128A1160250A128A118030F0002530C1
:100B4C00F1000A128A1136250A128A11203084000B
:100B5C00831203133D0883138000840A3E0880002F
:100B6C00840A3F088000840A40088000840A4108F7
:100B7C008000840A42088000AE01AF01A601A701E3
:100B8C008E300A128A1109250A128A11FF3A031DA6
:100B9C00442F83120313A801A90128082904031D5B
:100BAC002E2FAA01AB01BB01BC013C08803AFF000F
:100BBC0080307F02031DE42D06303B0203182D2EDE
:100BCC008312031385140230F7000430F600BA3098
:100BDC00F500F50BEF2DF60BEF2DF70BEF2D0000BD
:100BEC008312031385103B08203E84000A128A11DD
:100BFC00FC240A128A1183130006031D0E2E0130E9
:100C0C0083120313AA070318AB0A0030AB071A2E82
:100C1C00053083120313BB000030BC0040300A12B5
:100C2C008A11EC240A128A11013083120313BB07B8
:100C3C000318BC0A0030BC073C08803AFF00803027
:100C4C007F02031D2B2E06303B02031CE62D0630C3
:100C5C00831203132A062B04031DD32D3F300A12D3
:100C6C008A11EC240A128A1183120313AC0134305A
:100C7C00F5007508AD00B401B501B601831203137C
:100C8C0034083504031D792E0A128A11FC240A1229
:100C9C008A11F500750883120313B6003608F500A7
:100CAC007508F0002C080A128A1116250A128A11EE
:100CBC000130F500750883120313AC070130AE0741
:100CCC000318AF0A0030AF070A128A11FC240A126B
:100CDC008A113F3A031D442E013083120313B400D2
:100CEC000030B500442EB001B1013108803AF50056
:100CFC002F08803A7502031D852E2E08300203182A
:100D0C00AE2E8312031330080A128A1109250A1217
:100D1C008A110A128A11EC240A128A118312031303
:100D2C0085140230F7000430F600BA30F500F50BEC
:100D3C009D2EF60B9D2EF70B9D2E00008312031398
:100D4C0085100130B0070318B10A0030B1077B2EB3
:100D5C0083120313B401B501831203133408350451
:100D6C00031DE72E0A128A11FC240A128A11F500BF
:100D7C00750883120313B6003608F5007508F000E9
:100D8C002D080A128A1116250A128A110130F50053
:100D9C00750883120313AD070130A6070318A70AC1
:100DAC000030A7070A128A11FC240A128A113F3A52
:100DBC00031DB22E013083120313B4000030B500B2
:100DCC00B22E3430B7000030B8003808803AFF003B
:100DDC0080307F02031DF42E3B3037020318272F7F
:100DEC008312031337080A128A1109250A128A1171
:100DFC000A128A11EC240A128A1183120313851425
:100E0C000230F7000430F600BA30F500F50B0C2F69
:100E1C00F60B0C2FF70B0C2F00008312031385100D
:100E2C000130B7070318B80A0030B8073808803A01
:100E3C00FF0080307F02031D252F3B303702031C3F
:100E4C00F62E013083120313A8000030A900D32D15
:100E5C007730F5007508F0008E300A128A111625CD
:100E6C000A128A11831203132E08F5007508F0007C
:100E7C008F300A128A1116250A128A1120300A1292
:100E8C008A11EC240A128A110A128A11FC240A1201
:100E9C008A113F3A031DC62D83120313B201B3010D
:100EAC008F300A128A1109250A128A11F500831251
:100EBC0003133308803AF60080307602031D682F46
:100ECC00750832020318912F8312031332080A1289
:100EDC008A1109250A128A110A128A11EC240A12A3
:100EEC008A118312031385140230F7000430F600C4
:100EFC00BA30F500F50B802FF60B802FF70B802FF7
:100F0C0000008312031385100130B2070318B30AD3
:100F1C000030B307562F20300A128A11EC240A1223
:100F2C008A11343083120313B9000030BA003A0826
:100F3C00803AFF0080307F02031DA62F3B30390220
:100F4C000318C62D8312031339080A128A110925B6
:100F5C000A128A110A128A11EC240A128A118312BB
:100F6C00031385140230F7000430F600BA30F50094
:100F7C00F50BBE2FF60BBE2FF70BBE2F0000831206
:100F8C00031385100130B9070318BA0A0030BA07E9
:100F9C009D2F0A128A11E6240A128A11BD000A1228
:100FAC008A11E7240A128A11BE000A128A11E82457
:100FBC000A128A11BF000A128A11E9240A128A1134
:100FCC00C0000A128A11EA240A128A11C1000A12FC
:100FDC008A11EB240A128A11C2008313A0308400F8
:100FEC00E0300A128A11F424F801F90183010A1283
:040FFC008A118E2D9B
:04400E00F4EFFFFFCD
:00000001FF
